:10000000B0EF05F0F76A140FF66E000EF722090044
:10001000F5501200280C0106496E6974616C3A2093
:1000200025642564256425640000526573706F6E35
:10003000643A20256425642564256400EA6A1D0E5F
:10004000E96EEF5007E0A50E006E002EFED700000F
:10005000EF2EF9D7120024B002D08B9801D08B88F4
:10006000949824B202D08B9A01D08B8A949A24B4AB
:1000700002D08B9C01D08B8C949C24B602D08B9E9A
:1000800001D08B8E949E00008D80969000008D9004
:1000900096901200256A9488000E82B8010E2512EF
:1000A000948A000E82BA010E006ED890003600507D
:1000B0002512948C000E82BC010E006E00360036B4
:1000C000FC0E001600502512948E000E82BE010E0A
:1000D000006E003600360036F80E0016005025126D
:1000E00025C001F012009488948A948C948E8D849B
:1000F000969400008D8096900000CCDF01C024F023
:100100008D90969000008D8096900000C3DF01C016
:1001100023F08D9096909498949A949C949E243871
:10012000006EF00E001600502310016E9BEF00F0E1
:100130008D929692D8D701C023F001BEFBD72152F1
:1001400002E18D9201D08D82969200008D9496945A
:1001500000008D9096902238236E0F0E231623C038
:1001600024F079DF22500F0B236E246E74DF12000F
:100170009498949A949C949E9690969296948D922C
:1001800096928D9496948D9096900F0E1D6E56DFDC
:10019000010E166E1650030808E3030E246E5BDF93
:1001A000050E1D6E4BDF162AF5D7020E246E53DFA7
:1001B000166A1650030809E3036A165023DF176E08
:1001C000216A226EB5DF162AF4D7E0EF05F0016A46
:1001D000026A006A036A1D5002E11C5018E0100E0A
:1001E0001E6ED8901A361B36003603361D50035C3F
:1001F00002E11C50005C07E31C50005ED8A003061F
:100200001D50035ED880013602361E2EEAD712003A
:1002100017C019F016C018F019C01BF018C01AF05A
:100220001D6A0A0E1C6ED3DF00C015F019C01BF04A
:1002300018C01AF01D6A0A0E1C6EC9DF02C019F040
:1002400001C018F019C01BF018C01AF01D6A0A0E80
:100250001C6EBDDF00C014F019C01BF018C01AF0EE
:100260001D6A0A0E1C6EB3DF02C019F001C018F03F
:1002700019C01BF018C01AF01D6A0A0E1C6EA7DF09
:1002800000C013F019C01BF018C01AF01D6A0A0E46
:100290001C6E9DDF02C019F001C018F018C012F0EA
:1002A00012001E2C02D01F6A11D01E50020803E15A
:1002B000400E1F6E0BD01E50030803E1140E1F6E7C
:1002C00005D01E50040802E1540E1F6E010E1D5C85
:1002D0001F261F508009206E216A226E29DF12001E
:1002E0001C500C0A05E0060A0BE0020A0FE013D0CE
:1002F000216A010E226E1CDF020E1D6E9FDE10D0E1
:10030000010E1D6E020E1E6ECCDF0AD0216A100E89
:10031000226E0EDF05D0010E216E1CC022F008DF18
:1003200012000900F6CF17F0F7CF18F0F5CF1CF048
:10033000D7DF17C0F6FF18C0F7FF162EF2D712004E
:100340001D50016A1C5C03E21CC000F00CD0006A66
:10035000080E1E6E1C3600361D50005CD8B0006EB4
:1003600001361E2EF7D71200200E17A8300E186E79
:1003700016C000F016AE08D0001E002A00C016F00D
:100380002D0E186E178E1780015016C01CF0640ECB
:100390001D6ED6DF00C016F0300E0124196E16C097
:1003A0001CF00A0E1D6ECCDF300E00241B6E300ECA
:1003B00001241A6E18C000F0300E195C04E0178298
:1003C00017BE178412D018C019F0200E186E300E08
:1003D0001A5C04E0178017BE178207D0D8A41780D4
:1003E00004E119C01AF0200E196E17B405D017B227
:1003F00006D017B007D009D018C01CF071DF19C0A3
:100400001CF06EDF1AC01CF06BDF1BC01CF068DF35
:10041000120017501918800B1B6E17AE05D0161E50
:10042000171E162AD8B4172A19AE05D0181E191E81
:10043000182AD8B4192A16501802F3CF01F0F4CFB5
:1004400000F01902F350002617501802F350002054
:10045000026E1BAE05D0011E021E012AD8B4022A6C
:10046000DCEF04F08E0E006E1BC001F01AC002F02B
:10047000036A1BAE05D0011E021E022A01E1012AF9
:10048000015209E102C001F0026A080E005E015249
:1004900002E1006A0AD0D89001BE04D002360136CB
:1004A0000006F9D71BBE01D0019E12001650D8B429
:1004B00071D0006E1A50D8B46DD0002604E3810EBE
:1004C000002668E204D07F0E005E64E363E017C09C
:1004D0001EF01B501E1A178E1B8E19501D02F4CFD2
:1004E00020F018501C02F4CF03F0F3CF1FF01D02D0
:1004F000F3502026F4501F22000E032219501C0234
:10050000F3502026F4501F22000E026A032202221A
:1005100017501D02F3501F26F4500322000E022232
:1005200017501C02F3500326F4500222000E016AF9
:10053000012219501B02F3501F26F4500322000E13
:100540000222012218501B02F3500326F45002220B
:10055000000E012217501B02F3500226F450012214
:10056000002A01BE05D01F360336023601360006CA
:10057000000E1FAE0AD0032A02220122015005E11B
:10058000025003E1035001E1002A1EBE018E1EAE9F
:10059000019E04D0006A016A026A036A1200800E9A
:1005A000D8B21F1A246A256A1BC023F01F50231AD1
:1005B0001A50D8B4DCD0226E006E1E50D8B4E0D0F1
:1005C000225ED8B481D03DE31FC028F0288E20C021
:1005D00027F021C026F0256AD8902832273226320B
:1005E0002532222EF8D723AE03D02480DDD02490EC
:1005F00022902488EA6A1D0EE96EE9D0249823BE71
:100600000AD022A013D02832273226322532002ADF
:10061000D8B4C5D00BD028BE0CD0D89025362636FD
:10062000273628360006D8B4BAD0F5D7248C6BD03C
:10063000249C1BC023F01BAE02D0288EA9D0289E7C
:10064000A7D01EC022F01EC000F01A50225E1BC0B0
:1006500028F0288E1CC027F01DC026F0256AD890EF
:100660002832273226322532222EF8D723AE03D065
:1006700024829AD024922290248AEA6A210EE96E7A
:10068000A6D0249A23BE0AD022A013D02832273223
:1006900026322532002AD8B482D00BD028BE0CD006
:1006A000D89025362636273628360006D8B477D097
:1006B000F5D7248E28D0249E1FC023F01FAE02D071
:1006C000288E66D0289E64D01FC028F0288E20C0B7
:1006D00027F021C026F023AE04D0289E248464D0C5
:1006E0002494256A2290EA6A1D0EE96E70D023BE1A
:1006F0001CD01BC023F022A006D02832273226327D
:100700002532002A4CE025AE0BD0262A09E1272A03
:1007100007E1282A05E1283227322632002A3FE065
:1007200024BC86D724BEC7D71CD0800E281A28AE7A
:1007300004D03AD01FC023F00AD01BC023F02852A7
:1007400006E1275204E1265202E1006A21D028BEC8
:1007500008D0D8902536263627362836002EF7D7EB
:100760001ED023AE02D0288E13D0289E11D01EC0DA
:1007700000F01FC028F020C027F021C026F008D0CC
:100780001AC000F01BC028F01CC027F01DC026F0C6
:1007900028C001F027C002F026C003F034D0006A60
:1007A000016A026A036A2FD0256A261E271E281EA8
:1007B000251E252A05E1262A03E1272A01E1282A08
:1007C00024B015D724B256D724B48AD7B3D7EF5064
:1007D000262605E3272A03E1282AD8B42280ED52F1
:1007E000EF50272603E3282AD8B42280ED52EF5099
:1007F000EFBE01D0800A2826D8B0228024B8FED6C9
:1008000024BA3FD774D712008E0E006E1A50005EC5
:100810001BC002F01CC001F0028E005209E0D8900B
:10082000025202E1015204E002320132002EF7D7F7
:100830001BAE05D0011E021E012AD8B4022A1200E6
:100840001A50D8B4A5D0266E1E50D8B4A1D0265EBA
:1008500005E37F0E2626D8B09BD006D0810E265EFB
:10086000D8A096D0D8B494D026C000F0016A026A0D
:10087000036A256A1BC024F0248E1CC023F01DC00F
:1008800022F0190E266E2150225E0DE2010E235E2B
:100890000AE2245E08E2255E06E2252A242A232AAB
:1008A0002150222628D02050235E12E2010E245E21
:1008B0000FE2255E0DE2252A242A2050232621500E
:1008C000222619E3232A17E1242A15E1252A13D029
:1008D0001F508009245E0EE2010E255E0BE2252AE0
:1008E0001F508009242620502326E9E3242AE7E12B
:1008F000252AE5D70380262E01D00BD0D8902236AA
:10090000233624362536D89003360236013627366C
:10091000BAD727A006D0D89001320232033227324C
:1009200002D0000635E027BE1ED0D89022362336EE
:10093000243625362150225E07E2010E235E04E2B2
:10094000245E02E2255E1AE32050235E05E2010EDA
:10095000245E02E2255E12E31F508009245E03E25A
:10096000010E255E0BE3032A09E1022A07E1012AB1
:1009700005E1002A0DE00132023203321BC026F0ED
:100980001F50261A26AE02D0018E06D0019E04D03A
:10099000006A016A026A036A59EF05F00A50085CAE
:1009A000066E0B500958076E176A0A0E166E07C0BE
:1009B00019F006C018F02DD502C005F001C004F0F2
:1009C00006500E240C6E07500F200D6E0DC01BF04C
:1009D0000CC01AF047DDCD0E196ECC0E186E4C0E01
:1009E000176E7B0E166E03C01DF002C01CF001C016
:1009F0001BF000C01AF05ADD03C019F002C018F055
:100A000001C017F000C016F005C01BF004C01AF0BA
:100A100029DDD89203C01DF002C01CF001C01BF0FC
:100A200000C01AF019C021F018C020F017C01FF044
:100A300016C01EF0B4DD03C01DF002C01CF001C0E2
:100A40001BF000C01AF0E0DE02C005F001C004F0A7
:100A50000E50065C006E0F500758036E00C01AF06F
:100A60001B6E00DD0A0E196ED70E186E230E176E60
:100A7000780E166E03C01DF002C01CF001C01BF002
:100A800000C01AF013DD03C019F002C018F001C055
:100A900017F000C016F003C01DF002C01CF001C02A
:100AA0001BF000C01AF0216A206A1F6A7E0E1E6EBB
:100AB000C7D603C019F002C018F001C017F000C07B
:100AC00016F005C01BF004C01AF0CCDCD89203C0AD
:100AD0001DF002C01CF001C01BF000C01AF019C0CC
:100AE00021F018C020F017C01FF016C01EF057DD0F
:100AF00003C01DF002C01CF001C01BF000C01AF0C2
:100B000083DE02C005F001C004F005C011F004C08E
:100B100010F011BE0CD01150020809E2FF0A03E1E7
:100B20001050E80804E2030E116EE80E106E07C0C4
:100B30000FF006C00EF011C002F010C001F002323A
:100B4000013202320132023201C0BEFF02320230F3
:100B5000300B006EBD50CF0B0010BD6E48EF06F09D
:100B6000F86AD09E076A066A096A086A0B6A0A6A06
:100B70000D6A0C6A0F6A0E6A116A106AB990C19CFC
:100B8000C19E000EB86E126A136A146A156A180EB6
:100B9000B66E676A666A656A646A020E096EBC0EA2
:100BA000086E000E0609CA6EFF0ECB6E94948B94ED
:100BB0000C0EBD6EBE6A94928B92BA6EB8EF00F0C6
:100BC00009C017F008C016F008EC01F0010E1D6E08
:100BD0001E6E51EC01F00C0E1C6E70EC01F0180E44
:100BE000F66E000EF76E080E166E91EC01F012C054
:100BF00016F0180E176EB4EC01F013C016F0180EB4
:100C0000176EB4EC01F014C016F0180E176EB4ECA9
:100C100001F015C016F0180E176EB4EC01F0673035
:100C2000036E6630026E033202323F0E031602C0BC
:100C30000AF003C00BF00BC017F00AC016F008EC66
:100C400001F0010E1D6E020E1E6E51EC01F02A0E17
:100C5000F66E000EF76E090E166E91EC01F012C0E2
:100C600016F0180E176EB4EC01F013C016F0180E43
:100C7000176EB4EC01F014C016F0180E176EB4EC39
:100C800001F015C016F0180E176EB4EC01F086D600
:040C9000C6D70300C0
:020000040030CA
:0E00000000C10E3E3C9D81000FC00FE00F407E
:00000001FF
;PIC18F4431
;CRC=1BB7  CREATED="08-Nov-17 13:45"
