:1000000017EF06F0F76A140FF66E000EF7220900DC
:10001000F5501200280C0106496E6974616C3A2093
:100020002564256425640000526573706F6E643A20
:100030002025642564256400EA6A290EE96EEF50E4
:1000400007E0A50E006E002EFED70000EF2EF9D7B8
:10005000120030B002D08B9801D08B88949830B2C7
:1000600002D08B9A01D08B8A949A30B402D08B9CA8
:1000700001D08B8C949C30B602D08B9E01D08B8E9D
:10008000949E00008D80969000008D9096901200B6
:10009000316A9488000E82B8010E3112948A000EE3
:1000A00082BA010E006ED890003600503112948C46
:1000B000000E82BC010E006E00360036FC0E0016EB
:1000C00000503112948E000E82BE010E006E00367A
:1000D00000360036F80E00160050311231C001F023
:1000E00012009488948A948C948E8D849694000047
:1000F0008D8096900000CCDF01C030F08D909690FE
:1001000000008D8096900000C3DF01C02FF08D901D
:1001100096909498949A949C949E3038006EF00E29
:10012000001600502F10016E99EF00F08D929692FC
:10013000D8D701C02FF001BEFBD72D5202E18D921E
:1001400001D08D82969200008D94969400008D903F
:1001500096902E382F6E0F0E2F162FC030F079DFAD
:100160002E500F0B2F6E306E74DF12009498949AFD
:10017000949C949E9690969296948D9296928D943D
:1001800096948D9096900F0E296E56DF010E226E7A
:100190002250030808E3030E306E5BDF050E296E64
:1001A0004BDF222AF5D7020E306E53DF226A22502F
:1001B000030809E3036A225025DF236E2D6A2E6EA1
:1001C000B5DF222AF4D7BFEF01F0016A026A006AA4
:1001D000036A255002E1245018E0100E266ED890D4
:1001E00022362336003603362550035C02E12450C4
:1001F000005C07E32450005ED8A003062550035E90
:10020000D88001360236262EEAD712002A2C02D0D8
:100210002B6A11D02A50020803E1400E2B6E0BD03E
:100220002A50030803E1140E2B6E05D02A5004084F
:1002300002E1540E2B6E010E295C2B262B508009F7
:100240002C6E2D6A2E6E72DF120028500C0A05E00B
:10025000060A0BE0020A0FE013D02D6A010E2E6E83
:1002600065DF020E296EE8DE10D0010E296E020E47
:100270002A6ECCDF0AD02D6A100E2E6E57DF05D005
:10028000010E2D6E28C02EF051DF12000900F6CFAE
:1002900023F0F7CF24F0F5CF28F0D7DF23C0F6FF07
:1002A00024C0F7FF222EF2D712002950016A285CE1
:1002B00003E228C000F00CD0006A080E2A6E28362F
:1002C00000362950005CD8B0006E01362A2EF7D7D0
:1002D0001200200E23A8300E246E22C000F022AEA1
:1002E00008D0001E002A00C022F02D0E246E238E9E
:1002F0002380015022C028F0640E296ED6DF00C092
:1003000022F0300E0124256E22C028F00A0E296E3C
:10031000CCDF300E0024276E300E0124266E24C060
:1003200000F0300E255C04E0238223BE238412D02B
:1003300024C025F0200E246E300E265C04E02380BD
:1003400023BE238207D0D8A4238004E125C026F051
:10035000200E256E23B405D023B206D023B007D0DB
:1003600009D024C028F071DF25C028F06EDF26C038
:1003700028F06BDF27C028F068DF1200F7D613C023
:1003800017F012C016F017C023F016C022F0256A2D
:100390000A0E246E1ADF00C018F017C023F016C032
:1003A00022F0256A0A0E246E10DF02C017F001C089
:1003B00016F017C023F016C022F0256A0A0E246E2C
:1003C00004DF00C019F017C023F016C022F0256A20
:1003D0000A0E246EFADE02C017F001C016F017C034
:1003E00023F016C022F0256A0A0E246EEEDE00C04D
:1003F0001AF0010E296E2A6E09DF0C0E286E25DF19
:10040000180EF66E000EF76E080E226E3FDF1AC051
:1004100022F0180E236E5DDF19C022F0180E236E35
:1004200058DF18C022F0180E236E53DF15C01DF0E0
:1004300014C01CF01DC023F01CC022F0256A0A0E57
:10044000246EC3DE00C01EF01DC023F01CC022F0CD
:10045000256A0A0E246EB9DE02C01DF001C01CF030
:100460001DC023F01CC022F0256A0A0E246EADDEEA
:1004700000C01FF01DC023F01CC022F0256A0A0E28
:10048000246EA3DE02C01DF001C01CF01DC023F0CD
:100490001CC022F0256A0A0E246E97DE00C020F0F0
:1004A000010E296E020E2A6EB1DE280EF66E000EC7
:1004B000F76E090E226EEADE20C022F0180E236EBF
:1004C00008DF1FC022F0180E236E03DF1EC022F0CB
:1004D000180E236EFEDE55EF06F013501518800B34
:1004E000176E13AE05D0121E131E122AD8B4132A8B
:1004F00015AE05D0141E151E142AD8B4152A125094
:100500001402F3CF01F0F4CF00F01502F3500026EF
:1005100013501402F3500020026E17AE05D0011ED6
:10052000021E012AD8B4022A40EF05F08E0E006E9A
:1005300017C001F016C002F0036A17AE05D0011E05
:10054000021E022A01E1012A015209E102C001F062
:10055000026A080E005E015202E1006A0AD0D890D9
:1005600001BE04D0023601360006F9D717BE01D00D
:10057000019E12001250D8B471D0006E1650D8B43B
:100580006DD0002604E3810E002668E204D07F0EC1
:10059000005E64E363E013C01AF017501A1A138E5A
:1005A000178E15501902F4CF1CF014501802F4CF16
:1005B00003F0F3CF1BF01902F3501C26F4501B225A
:1005C000000E032215501802F3501C26F4501B2273
:1005D000000E026A0322022213501902F3501B2656
:1005E000F4500322000E022213501802F350032687
:1005F000F4500222000E016A012215501702F35036
:100600001B26F4500322000E02220122145017026E
:10061000F3500326F4500222000E01221350170259
:10062000F3500226F4500122002A01BE05D01B36E9
:100630000336023601360006000E1BAE0AD0032A2E
:1006400002220122015005E1025003E1035001E1C1
:10065000002A1ABE018E1AAE019E04D0006A016AF9
:10066000026A036A1200800ED8B21B1A206A216A3D
:1006700017C01FF01B501F1A1650D8B4DCD01E6EC6
:10068000006E1A50D8B4E0D01E5ED8B481D03DE3DD
:100690001BC024F0248E1CC023F01DC022F0216A50
:1006A000D89024322332223221321E2EF8D71FAEA8
:1006B00003D02080DDD020901E902088EA6A190E99
:1006C000E96EE9D020981FBE0AD01EA013D02432B4
:1006D000233222322132002AD8B4C5D00BD024BE16
:1006E0000CD0D89021362236233624360006D8B4D2
:1006F000BAD0F5D7208C6BD0209C17C01FF017AE56
:1007000002D0248EA9D0249EA7D01AC01EF01AC0F1
:1007100000F016501E5E17C024F0248E18C023F07F
:1007200019C022F0216AD890243223322232213299
:100730001E2EF8D71FAE03D020829AD020921E9092
:10074000208AEA6A1D0EE96EA6D0209A1FBE0AD042
:100750001EA013D02432233222322132002AD8B4F0
:1007600082D00BD024BE0CD0D8902136223623362E
:1007700024360006D8B477D0F5D7208E28D0209E16
:100780001BC01FF01BAE02D0248E66D0249E64D006
:100790001BC024F0248E1CC023F01DC022F01FAE0D
:1007A00004D0249E208464D02094216A1E90EA6A9A
:1007B000190EE96E70D01FBE1CD017C01FF01EA00E
:1007C00006D02432233222322132002A4CE021AEDC
:1007D0000BD0222A09E1232A07E1242A05E1243249
:1007E00023322232002A3FE020BC86D720BEC7D762
:1007F0001CD0800E241A24AE04D03AD01BC01FF0A7
:100800000AD017C01FF0245206E1235204E12252FD
:1008100002E1006A21D024BE08D0D89021362236C9
:1008200023362436002EF7D71ED01FAE02D0248EDA
:1008300013D0249E11D01AC000F01BC024F01CC09D
:1008400023F01DC022F008D016C000F017C024F01D
:1008500018C023F019C022F024C001F023C002F018
:1008600022C003F034D0006A016A026A036A2FD002
:10087000216A221E231E241E211E212A05E1222A6E
:1008800003E1232A01E1242A20B015D720B256D74C
:1008900020B48AD7B3D7EF50222605E3232A03E1F9
:1008A000242AD8B41E80ED52EF50232603E3242AD5
:1008B000D8B41E80ED52EF50EFBE01D0800A24263E
:1008C000D8B01E8020B8FED620BA3FD774D7120009
:1008D0008E0E006E1650005E17C002F018C001F0B8
:1008E000028E005209E0D890025202E1015204E067
:1008F00002320132002EF7D717AE05D0011E021EBC
:10090000012AD8B4022A12001650D8B4A5D0226EFB
:100910001A50D8B4A1D0225E05E37F0E2226D8B0AB
:100920009BD006D0810E225ED8A096D0D8B494D0A9
:1009300022C000F0016A026A036A216A17C020F02F
:10094000208E18C01FF019C01EF0190E226E1D5007
:100950001E5E0DE2010E1F5E0AE2205E08E2215ECD
:1009600006E2212A202A1F2A1D501E2628D01C50AC
:100970001F5E12E2010E205E0FE2215E0DE2212ACF
:10098000202A1C501F261D501E2619E31F2A17E17E
:10099000202A15E1212A13D01B508009205E0EE287
:1009A000010E215E0BE2212A1B50800920261C50DB
:1009B0001F26E9E3202AE7E1212AE5D70380222E3A
:1009C00001D00BD0D8901E361F3620362136D89055
:1009D0000336023601362336BAD723A006D0D89084
:1009E000013202320332233202D0000635E023BE48
:1009F0001ED0D8901E361F36203621361D501E5E62
:100A000007E2010E1F5E04E2205E02E2215E1AE3AD
:100A10001C501F5E05E2010E205E02E2215E12E321
:100A20001B508009205E03E2010E215E0BE3032AC6
:100A300009E1022A07E1012A05E1002A0DE001325D
:100A40000232033217C022F01B50221A22AE02D00B
:100A5000018E06D0019E04D0006A016A026A036A10
:100A6000C0EF05F00A50085C066E0B500958076E7F
:100A7000136A0A0E126E07C015F006C014F02DD5C9
:100A800002C005F001C004F006500E240C6E0750A1
:100A90000F200D6E0DC017F00CC016F047DDCD0E07
:100AA000156ECC0E146E4C0E136E7B0E126E03C0C0
:100AB00019F002C018F001C017F000C016F05ADD9E
:100AC00003C015F002C014F001C013F000C012F012
:100AD00005C017F004C016F029DDD89203C019F044
:100AE00002C018F001C017F000C016F015C01DF0CC
:100AF00014C01CF013C01BF012C01AF0B4DD03C008
:100B000019F002C018F001C017F000C016F0E0DEC6
:100B100002C005F001C004F00E50065C006E0F50DC
:100B20000758036E00C016F0176E00DD0A0E156E32
:100B3000D70E146E230E136E780E126E03C019F0CA
:100B400002C018F001C017F000C016F013DD03C09A
:100B500015F002C014F001C013F000C012F003C081
:100B600019F002C018F001C017F000C016F0CD0E49
:100B70001D6ECC0E1C6E4C0E1B6E7A0E1A6EC4D6F9
:100B800003C015F002C014F001C013F000C012F051
:100B900005C017F004C016F0C9DCD89203C019F0E4
:100BA00002C018F001C017F000C016F015C01DF00B
:100BB00014C01CF013C01BF012C01AF054DD03C0A7
:100BC00019F002C018F001C017F000C016F080DE66
:100BD00002C005F001C004F005C011F004C010F01F
:100BE00011BE0CD01150020809E2FF0A03E11050B7
:100BF000E80804E2030E116EE80E106E07C00FF055
:100C000006C00EF011C002F010C001F00232013235
:100C100002320132023201C0BEFF02320230300B1A
:100C2000006EBD50CF0B0010BD6E56EF06F0F86A97
:100C3000D09E076A066A096A086A0B6A0A6A0D6A20
:100C40000C6A0F6A0E6A116A106AB990C19CC19E43
:100C5000000EB86EA80EB66E100E606E676A666AF9
:100C6000656A646A030E096E200E086E000E06099E
:100C7000CA6EFF0ECB6E94948B940C0EBD6EBE6A42
:100C800094928B92BA6EBB6AD8906730036E6630CE
:100C90000A6E03C00BF009C013F008C012F00BC0BD
:100CA00015F00AC014F0BEEF01F0DCD6EDD703005A
:020000040030CA
:0E00000000C10E3E3C9D81000FC00FE00F407E
:00000001FF
;PIC18F4431
;CRC=37F2  CREATED="08-Nov-17 08:03"
