:10000000B0EF06F0F76A140FF66E000EF722090043
:10001000F5501200280C010644657369726564206E
:1000200076616C75653A2000496E697469616C3A55
:1000300020256425642564256400526573706F6E05
:10004000643A20256425642564256400EA6A2C0E40
:10005000E96EEF5007E0A50E006E002EFED70000FF
:10006000EF2EF9D7120033B002D08B9801D08B88D5
:10007000949833B202D08B9A01D08B8A949A33B47D
:1000800002D08B9C01D08B8C949C33B602D08B9E7B
:1000900001D08B8E949E00008D80969000008D90F4
:1000A00096901200346A9488000E82B8010E3412C1
:1000B000948A000E82BA010E006ED890003600506D
:1000C0003412948C000E82BC010E006E0036003695
:1000D000FC0E001600503412948E000E82BE010EEB
:1000E000006E003600360036F80E0016005034124E
:1000F00034C001F012009488948A948C948E8D847C
:10010000969400008D8096900000CCDF01C033F003
:100110008D90969000008D8096900000C3DF01C006
:1001200032F08D9096909498949A949C949E333843
:10013000006EF00E001600503210016EA3EF00F0BA
:100140008D929692D8D701C032F001BEFBD73052C3
:1001500002E18D9201D08D82969200008D9496944A
:1001600000008D9096903138326E0F0E321632C0EC
:1001700033F079DF31500F0B326E336E74DF1200C3
:100180009498949A949C949E9690969296948D921C
:1001900096928D9496948D9096900F0E2C6E56DFBD
:1001A000010E296E2950030808E3030E336E5BDF4E
:1001B000050E2C6E4BDF292AF5D7020E336E53DF66
:1001C000296A2950030809E3036A29501BDF2A6EB4
:1001D000306A316EB5DF292AF4D712002D2C02D0F7
:1001E0002E6A11D02D50020803E1400E2E6E0BD066
:1001F0002D50030803E1140E2E6E05D02D50040877
:1002000002E1540E2E6E010E2C5C2E262E5080091B
:100210002F6E306A316E94DF12002B500C0A05E00D
:10022000060A0BE0020A0FE013D0306A010E316EAD
:1002300087DF020E2C6E0ADF10D0010E2C6E020E2C
:100240002D6ECCDF0AD0306A100E316E79DF05D00A
:10025000010E306E2BC031F073DF12000900F55231
:100260000CE0F6CF29F0F7CF2AF0F5CF2BF0D5DF51
:1002700029C0F6FF2AC0F7FFF1D7E1EF01F02A50BD
:10028000010A05E0030A0AE0010A0FE014D02B522C
:1002900002E18C9801D08C8895980DD02B5202E108
:1002A0008C9A01D08C8A959A06D02B5202E18C9CB4
:1002B00001D08C8C959C1200292C01D001D0000E0D
:1002C0002950030806E329C02AF02B6AD8DF292A1F
:1002D000F7D71200296A010E2A6E2B6ED0DF9580A7
:1002E00083A002D0010E296E958283A202D0040E53
:1002F000296E958483A402D0070E296E958683A665
:1003000002D00A0E296E010E2A6E2B6AB8DF020E89
:100310002A6E010E2B6EB3DF958083A002D0020EF1
:10032000296E958283A202D0050E296E958483A43E
:1003300002D0080E296E958683A602D00B0E296E78
:10034000020E2A6E2B6A9BDF030E2A6E010E2B6EA5
:1003500096DF958083A002D0030E296E958283A23A
:1003600002D0060E296E958483A402D0090E296E50
:10037000958683A602D00C0E296E030E2A6E2B6A78
:100380007EDF29C001F0120029502B02F3CF01F0CB
:10039000F4CF00F02C02F35000262A502B02F35029
:1003A0000020026E1200246A0F0E266E286A276A49
:1003B000E7DE0C0E2B6E31DF180EF66E000EF76EB8
:1003C0004DD77ADF87DF01C024F0245246E0245065
:1003D0000C0801E143D024C025F024500B0813E0A1
:1003E00028C02AF027C029F02C6A0A0E2B6ECCDF19
:1003F00002C02AF001C029F024500124276E000E0B
:100400000220286E0CD028C02AF027C029F02C6AC0
:100410000A0E2B6EB9DF02C028F001C027F026C0FB
:100420002CF0010E2D6EDADE010E255C036A040F3E
:10043000E96E000E0320EA6EEFCF29F029C02BF001
:10044000ECDE262A47DF015204E0050E2C6EFEDDAD
:10045000F9D728C015F027C014F0B4D71200016AEC
:10046000026A006A036A2B5002E12A5018E0100E5B
:100470002C6ED89028362936003603362B50035C74
:1004800002E12A50005C07E32A50005ED8A0030670
:100490002B50035ED880013602362C2EEAD712008C
:1004A00025C027F024C026F027C029F026C028F058
:1004B0002B6A0A0E2A6ED3DF00C021F027C029F074
:1004C00026C028F02B6A0A0E2A6EC9DF02C027F068
:1004D00001C026F027C029F026C028F02B6A0A0E9A
:1004E0002A6EBDDF00C020F027C029F026C028F00A
:1004F0002B6A0A0E2A6EB3DF02C027F001C026F075
:1005000027C029F026C028F02B6A0A0E2A6EA7DF22
:1005100000C01FF027C029F026C028F02B6A0A0E61
:100520002A6E9DDF02C027F001C026F026C01EF013
:1005300012000900F6CF25F0F7CF26F0F5CF2BF00B
:100540006CDE25C0F6FF26C0F7FF242EF2D712007E
:100550002B50016A2A5C03E22AC000F00CD0006A2A
:10056000080E2C6E2A3600362B50005CD8B0006E78
:1005700001362C2EF7D71200200E25A8300E266E3D
:1005800024C000F024AE08D0001E002A00C024F0D1
:100590002D0E266E258E2580015024C02AF0640E73
:1005A0002B6ED6DF00C024F0300E0124276E24C04D
:1005B0002AF00A0E2B6ECCDF300E0024296E300E8E
:1005C0000124286E26C000F0300E275C04E025824E
:1005D00025BE258412D026C027F0200E266E300EB0
:1005E000285C04E0258025BE258207D0D8A425807C
:1005F00004E127C028F0200E276E25B405D025B2CF
:1006000006D025B007D009D026C02BF006DE27C0C3
:100610002BF003DE28C02BF000DE29C02BF0FDDD1F
:10062000120025502718800B296E25AE05D0241EF8
:10063000251E242AD8B4252A27AE05D0261E271E1B
:10064000262AD8B4272A24502602F3CF01F0F4CF6B
:1006500000F02702F350002625502602F350002018
:10066000026E29AE05D0011E021E012AD8B4022A4C
:10067000F7EF05F08E0E006E29C001F028C002F0E1
:10068000036A29AE05D0011E021E022A01E1012AD9
:10069000015209E102C001F0026A080E005E015237
:1006A00002E1006A0AD0D89001BE04D002360136B9
:1006B0000006F9D729BE01D0019E12002450D8B4FB
:1006C00071D0006E2850D8B46DD0002604E3810E9E
:1006D000002668E204D07F0E005E64E363E025C07C
:1006E0002CF029502C1A258E298E27502B02F4CF5E
:1006F0002EF026502A02F4CF03F0F3CF2DF02B0278
:10070000F3502E26F4502D22000E032227502A02E9
:10071000F3502E26F4502D22000E026A03220222EC
:1007200025502B02F3502D26F4500322000E0222F6
:1007300025502A02F3500326F4500222000E016ACB
:10074000012227502902F3502D26F4500322000ED7
:100750000222012226502902F3500326F4500222DD
:10076000000E012225502902F3500226F4500122E6
:10077000002A01BE05D02D360336023601360006AA
:10078000000E2DAE0AD0032A02220122015005E1FB
:10079000025003E1035001E1002A2CBE018E2CAE71
:1007A000019E04D0006A016A026A036A20EF06F023
:1007B0002850D8B4A5D0346E2C50D8B4A1D0345E13
:1007C00005E37F0E3426D8B09BD006D0810E345E70
:1007D000D8A096D0D8B494D034C000F0016A026A90
:1007E000036A336A29C032F0328E2AC031F02BC03E
:1007F00030F0190E346E2F50305E0DE2010E315E76
:100800000AE2325E08E2335E06E2332A322A312AF5
:100810002F50302628D02E50315E12E2010E325E6B
:100820000FE2335E0DE2332A322A2E5031262F504A
:10083000302619E3312A17E1322A15E1332A13D081
:100840002D508009325E0EE2010E335E0BE2332A38
:100850002D50800932262E503126E9E3322AE7E175
:10086000332AE5D70380342E01D00BD0D890303610
:10087000313632363336D8900336023601363536C5
:10088000BAD735A006D0D8900132023203323532C1
:1008900002D0000635E035BE1ED0D8903036313655
:1008A000323633362F50305E07E2010E315E04E2FD
:1008B000325E02E2335E1AE32E50315E05E2010E33
:1008C000325E02E2335E12E32D508009325E03E2B3
:1008D000010E335E0BE3032A09E1022A07E1012A34
:1008E00005E1002A0DE001320232033229C034F062
:1008F0002D50341A34AE02D0018E06D0019E04D0A1
:10090000006A016A026A036A36EF06F0800ED8B206
:100910002D1A326A336A29C031F02D50311A28500D
:10092000D8B4DCD0306E006E2C50D8B4E0D0305E3D
:10093000D8B481D03DE32DC036F0368E2EC035F0D0
:100940002FC034F0336AD8903632353234323332F5
:10095000302EF8D731AE03D03280DDD032903090D7
:100960003288EA6A2B0EE96EE9D0329831BE0AD09D
:1009700030A013D03632353234323332002AD8B474
:10098000C5D00BD036BE0CD0D89033363436353681
:1009900036360006D8B4BAD0F5D7328C6BD0329C3C
:1009A00029C031F029AE02D0368EA9D0369EA7D00C
:1009B0002CC030F02CC000F02850305E29C036F03A
:1009C000368E2AC035F02BC034F0336AD8903632D8
:1009D000353234323332302EF8D731AE03D0328252
:1009E0009AD032923090328AEA6A2F0EE96EA6D0FF
:1009F000329A31BE0AD030A013D03632353234327A
:100A00003332002AD8B482D00BD036BE0CD0D89066
:100A100033363436353636360006D8B477D0F5D787
:100A2000328E28D0329E2DC031F02DAE02D0368EBF
:100A300066D0369E64D02DC036F0368E2EC035F08E
:100A40002FC034F031AE04D0369E328464D032945C
:100A5000336A3090EA6A2B0EE96E70D031BE1CD03A
:100A600029C031F030A006D036323532343233323C
:100A7000002A4CE033AE0BD0342A09E1352A07E1D5
:100A8000362A05E1363235323432002A3FE032BCB4
:100A900086D732BEC7D71CD0800E361A36AE04D0E9
:100AA0003AD02DC031F00AD029C031F0365206E1DB
:100AB000355204E1345202E1006A21D036BE08D03A
:100AC000D8903336343635363636002EF7D71ED02A
:100AD00031AE02D0368E13D0369E11D02CC000F02D
:100AE0002DC036F02EC035F02FC034F008D028C00D
:100AF00000F029C036F02AC035F02BC034F036C0E3
:100B000001F035C002F034C003F034D0006A016A4D
:100B1000026A036A2FD0336A341E351E361E331E16
:100B2000332A05E1342A03E1352A01E1362A32B0BD
:100B300015D732B256D732B48AD7B3D7EF5034264E
:100B400005E3352A03E1362AD8B43080ED52EF5060
:100B5000352603E3362AD8B43080ED52EF50EFBE8D
:100B600001D0800A3626D8B0308032B8FED632BAEC
:100B70003FD774D755EF06F08E0E006E2850005EFA
:100B800029C002F02AC001F0028E005209E0D8907C
:100B9000025202E1015204E002320132002EF7D784
:100BA00029AE05D0011E021E012AD8B4022A5EEF2A
:100BB00006F01650145C126E17501558136E13C0C1
:100BC00003F0125013AE08D0000ED8801254006EFD
:100BD000000E1354036E0050126E03C013F0256A0A
:100BE000050E246E13C027F012C026F01AD502C0DD
:100BF00011F001C010F012501A24186E13501B206F
:100C0000196E18501026195011221A50125C006EDD
:100C10001B501358036E00C028F0296E2BDD0A0EFE
:100C2000276ED70E266E230E256E780E246E03C017
:100C30002BF002C02AF001C029F000C028F03ED5F8
:100C400003C027F002C026F001C025F000C024F048
:100C500003C02BF002C02AF001C029F000C028F028
:100C60002F6A2E6A2D6A7E0E2C6EA2D503C027F045
:100C700002C026F001C025F000C024F011C029F008
:100C800010C028F0F7DCD89203C02BF002C02AF085
:100C900001C029F000C028F027C02FF026C02EF098
:100CA00025C02DF024C02CF031D603C02BF002C09B
:100CB0002AF001C029F000C028F05ED702C011F070
:100CC00001C010F011C01DF010C01CF01DBE0CD0F2
:100CD0001D50000809E2FF0A03E11C505E0804E20F
:100CE000010E1D6E5E0E1C6E13C01BF012C01AF0BA
:100CF00017AE03D015AE0AD002D015BE1CD01750C7
:100D0000155C19E303E11650145C15E31DC002F0F5
:100D10001CC001F00232013202320132023201C043
:100D2000BEFF02320230300B006EBD50CF0B001000
:100D3000BD6EBB6A14D01DC002F01CC001F00232AF
:100D4000013202320132023201C0BBFF02320230F4
:100D5000300B006EBA50CF0B0010BA6EBE6A120094
:100D6000F86AD09E136A126A156A146A176A166ABC
:100D7000196A186A1B6A1A6A1D6A1C6A236A226A3F
:100D8000B990C19CC19E000EB86E310E046E320E39
:100D9000056E330E066E340E076E350E086E360E77
:100DA000096E370E0A6E380E0B6E390E0C6E2A0E57
:100DB0000D6E300E0E6E230E0F6E1E6A1F6A206AB5
:100DC000216A8A809390D3EC01F0180EB66E676AA0
:100DD000666A656A646A5CEC01F0000E0609CA6E18
:100DE000FF0ECB6E94948B940C0EBD6EBE6A9492E3
:100DF0008B92BA6EBB6AC0EC00F015C025F014C02F
:100E000024F050EC02F0010E2C6E2D6EEEEC00F092
:100E10000C0E2B6E0DEC01F0280EF66E000EF76E28
:100E2000090E246E99EC02F01EC024F0180E256EF7
:100E3000BCEC02F01FC024F0180E256EBCEC02F0D2
:100E400020C024F0180E256EBCEC02F021C024F066
:100E5000180E256EBCEC02F06730036E6630026E31
:100E6000033202323F0E031602C016F003C017F021
:100E700017C025F016C024F050EC02F0010E2C6EC5
:100E8000020E2D6EEEEC00F03A0EF66E000EF76ECE
:100E9000090E246E99EC02F01EC024F0180E256E87
:100EA000BCEC02F01FC024F0180E256EBCEC02F062
:100EB00020C024F0180E256EBCEC02F021C024F0F6
:100EC000180E256EBCEC02F074DE125211E11352C2
:100ED0000FE1948682B60BD0D3EC01F0136A126A4C
:100EE000196A186A1B6A1A6A1D6A1C6A62DEEDD7E3
:040EF000B3D7030071
:020000040030CA
:0E00000000C10E3E3C9D81000FC00FE00F407E
:00000001FF
;PIC18F4431
;CRC=DE7A  CREATED="10-Nov-17 08:45"
